:020000040800F2
:10000000200A002071020008790200087B02000823
:100010007D0200087F020008810200080000000045
:100020000000000000000000000000008302000843
:10003000850200080000000087020008890200080D
:100040008B0200088B0200088B0200088B0200085C
:100050008B0200088B0200088B0200088B0200084C
:100060008B0200088B0200088B0200088B0200083C
:100070008B0200088B0200088B0200088B0200082C
:100080008B0200088B0200088B0200088B0200081C
:100090008B0200088B0200088B0200088B0200080C
:1000A0008B0200088B0200088B0200088B020008FC
:1000B0008B0200088B020008910300088B020008E5
:1000C0008B0200088B0200088B0200088B020008DC
:1000D0008B0200088B0200088B0200088B020008CC
:1000E0008B0200088B0200088B0200088B020008BC
:1000F0008B0200088B0200088B0200088B020008AC
:100100008B0200088B0200088B0200088B0200089B
:100110008B0200088B0200088B0200088B0200088B
:100120008B0200088B0200088B0200088B0200087B
:100130008B0200088B0200088B0200088B0200086B
:100140008B0200088B0200088B0200088B0200085B
:100150008B0200088B0200088B0200088B0200084B
:100160008B0200088B0200088B0200088B0200083B
:100170008B0200088B0200088B02000800000000C0
:100180008B0200088B02000800F002F800F060F813
:100190000AA090E8000C82448344AAF10107DA45E2
:1001A00001D100F055F8AFF2090EBAE80F0013F0D4
:1001B000010F18BFFB1A43F0010318477007000036
:1001C0009007000010F8013B0A4413F0030408BF35
:1001D00010F8014B1D1108BF10F8015B641E05D01B
:1001E00010F8016B641E01F8016BF9D1002D15D0D8
:1001F00010F8014B03F00C030C2BA1EB04040ABF15
:1002000010F8013BA4EB8314A4EB032405F10103D4
:1002100014F8016B5B1E01F8016BF9D5914238BFF0
:1002200010F8013BD1D3704700230024002500269D
:10023000103A28BF78C1FBD8520728BF30C148BF49
:100240000B6070471FB500F06BFB1FBD10B510BDF4
:1002500000F031F81146FFF7F5FF00F075F900F0F6
:100260004FF803B4FFF7F2FF03BC00F057F80000AB
:100270000948804709480047FEE7FEE7FEE7FEE73A
:10028000FEE7FEE7FEE7FEE7FEE7FEE70448054976
:10029000054A064B704700002D030008890100083D
:1002A00020040020200A0020200600202006002034
:1002B000704770477047754600F02CF8AE46050051
:1002C0006946534620F00700854618B020B5FFF771
:1002D000DDFFBDE820404FF000064FF000074FF073
:1002E00000084FF0000B21F00701AC46ACE8C00954
:1002F000ACE8C009ACE8C009ACE8C0098D4670475D
:1003000010B50446AFF300802046BDE81040FFF76B
:10031000A8BF000000487047C00300200149182012
:10032000ABBEFEE7260002007047000014480068DC
:1003300040F47000124908601248006840F0010063
:100340001049086000200F49083108600D48006816
:100350000D4908400B4908600C48091D0860081F3A
:10036000006820F48020091F0860002005490C3136
:1003700008604FF000600249803908607047000053
:1003800088ED00E000380240FFFFF6FE1030002448
:1003900000201F4908601F481F49096800EBC10081
:1003A00000791030012181401A481B4A126850F828
:1003B0003200816118480068401C452810DA154950
:1003C00015480068401C01EBC000017901208840FD
:1003D000104A11490968491C52F83110886106E039
:1003E0000C480179012088400A49096888610A4857
:1003F0000068401C0849086008460068452801DB81
:100400000020086005480068401C044908607047E7
:100410001008004018000020000000200400002008
:1004200008B50021009100BF00994A1C009281424A
:10043000FADB08BD00202949096841F48031274AC8
:10044000116000BF2549096801F400310029F9D085
:10045000411C0846B1F57A7FF4DB20494031096838
:1004600041F080511D4A403211601D49096841F434
:1004700080411B4A116019490831096841F414414F
:10048000164A083211601749121F1160111F0968BE
:1004900041F08071121F116000BF1049096801F01E
:1004A00000710029F9D040F205710F4A11600B4923
:1004B0000831096821F00301084A08321160114629
:1004C000096841F00201116000BF04490831096860
:1004D00001F008010029F8D0704700000038024000
:1004E0000070004018544004003C0240144800686A
:1004F00040F00400124908601248006820F0010032
:100500001049086053200F49283108606320091DF5
:10051000086001200B490C310860842009490860FB
:100520000846006840F0010008601E20012181405B
:100530004209920002F1E022C2F8001100BF7047A8
:10054000403802400008004086B00020049003902C
:1005500002904FF48010FFF763FFFFF76BFFDF4857
:10056000006840F07F00DD490860FFF7BFFFDC480E
:1005700000680068DA4909794A000121914008437E
:10058000D74909680860D64800688068D449097965
:100590004A00012191400843D14909688860002040
:1005A000059022E0CF49059A51F83200CD4A016802
:1005B000059B02EBC3021279530001229A401143BA
:1005C0000160C849059A51F8321001F108008968A4
:1005D000C44A059B02EBC3021279530001229A40E0
:1005E000114301600598401C059005984528D9DB0A
:1005F000002005907CE0BC49059A51F8321001F1C9
:1006000008008968B84A059B02EBC30212795300BF
:1006100001229A4011430160B348059950F8310016
:10062000B24A811A904238D009DCB149084468B115
:10063000B0F5806F17D0B0F5006F55D120E0B1F55F
:10064000806F37D0B1F5006F4ED140E0A9480088E7
:10065000A549059A01EBC2010A790121914008439D
:10066000A449088040E0A34840889F49059A01EBCF
:10067000C2010A790121914008439E49488033E034
:100680009C4880889849059A01EBC2010A790121AA
:10069000914008439749888026E09648C08892494F
:1006A000059A01EBC2010A79012191400843914961
:1006B000C88019E08F4800898B49059A01EBC20177
:1006C0000A790121914008438A4908810CE0894850
:1006D00040898549059A01EBC2010A7901219140BF
:1006E00008438449488100BF00BF0598401C05901D
:1006F00005982B28FFF67FAFEFE07F48006864285D
:1007000071DB7E480068401C7C49086000207A4903
:1007100008607B48008877490988884202D004989D
:10072000401C04907648408872494988884202D02B
:100730000498401C0490724880886E4989888842D9
:1007400002D00498401C04906D48C0886949C9884B
:10075000884202D00498401C049069480089654989
:100760000989884202D00498401C0490644840895A
:1007700060494989884202D00498401C04905F482F
:100780000068322827DD00205C49086004980028B2
:1007900008DD53480079103001218140504800683D
:1007A000816118E05748006858B100205549086039
:1007B0004B4800791030012181404948006881612F
:1007C00009E001204F49086045480179012088402F
:1007D0004349096888610020494908804880888029
:1007E000C880088148814848006842490988084013
:1007F00046490880464800683E49498808404349C0
:100800004880444800683B49898808403F498880BF
:10081000364800693749C98808403C49C8803E4885
:100820000068344909890840384908813B48006814
:10083000304949890840354948813148008809884C
:1008400008432F49088008464088304949880843B2
:100850002B494880084680882C49898808432849C4
:1008600088800846C0882949C98808432449C88027
:100870000846008925490989084321490881084615
:1008800040892249498908431D4948811F4803C8B6
:10089000CDE9000100200390059010E001210098AF
:1008A0000840039940180390DDE9000149104FEA20
:1008B0003000CDE90001059800F101000590059890
:1008C0004028EBDB0398012805DD0298012802DDB2
:1008D0000498401C0490039802900EE730380240C0
:1008E00010000020180000204002002000100240EC
:1008F00000FCFDBFB403002004000020080000201D
:10090000A80300200C000020100402409C030020DB
:1009100010080240100C024010140240101802404F
:100920004FF04070E1EE100A704700004C090008DB
:10093000000000209C030000C40100088C0A00088D
:100940009C0300208406000028020008E200013019
:100950000504024005094302401150040240010809
:100960005202085203085204086130520608520726
:1009700008520808520908520A08520B08520C7013
:10098000520278520608520708520A08520B0861B0
:1009900030520D08520E08220F085208905208904B
:1009A0005208505208505208905208905208605213
:1009B0000860520858520858520858520CA0520C5D
:1009C00050520C30520C90520C38521028561020B5
:1009D0005210905210905210408214085207085240
:1009E0000808520908520A08316852183052183063
:1009F000521830521828821828520C08520D0852EA
:100A00000E0803590F0001560458860458560090EA
:100A10005601985602A05603505600585601586188
:100A200018560468560568560770560878560980A7
:100A3000560A78520E08560F80560088560170529A
:100A40000708520808520908520A08520B08520CAB
:100A50000865C8520E08560FB05600B85601C05669
:100A600002C85603D05604D85605B8520C08520D89
:100A700008520E08560FD05600D85601E05602E82C
:0C0A80005603F04D580303000000000076
:04000005080002717C
:00000001FF
